:100000000C94380A0C94600A0C94600A0C94600AF0
:100010000C94600A0C94600A0C94600A0C94600AB8
:100020000C94600A0C94600A0C94FA110C946912F6
:100030000C94600A0C94600A0C94600A0C94600A98
:100040000C94600A0C94600A0C94600A0C94600A88
:100050000C94600A0C94600A0C94600A0C949B1433
:100060000C94600A0C94600A0C94600A0C94600A68
:100070000C94600A0C94600A0C94600A0C94600A58
:100080000C94E5140C94600A0C94600A0C94600AB9
:100090000C94600A0C94600A0C94600A0C94600A38
:1000A0000C94600A0C94600A0C94600A0000000032
:1000B000003E5B4F5B3E3E6B4F6B3E1C3E7C3E1CEE
:1000C000183C7E3C181C577D571C1C5E7F5E1C0034
:1000D000183C1800FFE7C3E7FF0018241800FFE7EB
:1000E000DBE7FF30483A060E2629792926407F05AE
:1000F0000507407F05253F5A3CE73C5A7F3E1C1CC4
:1001000008081C1C3E7F14227F22145F5F005F5F83
:1001100006097F017F006689956A6060606060946F
:10012000A2FFA29408047E040810207E2010080874
:100130002A1C08081C2A08081E101010100C1E0C7F
:100140001E0C30383E3830060E3E0E060000000011
:100150000000005F00000007000700147F147F14F8
:10016000242A7F2A1223130864623649562050003D
:1001700008070300001C2241000041221C002A1C29
:100180007F1C2A08083E0808008070300008080814
:100190000808000060600020100804023E51494534
:1001A0003E00427F400072494949462141494D3352
:1001B0001814127F1027454545393C4A49493141B9
:1001C000211109073649494936464949291E000087
:1001D00014000000403400000008142241141414DC
:1001E0001414004122140802015909063E415D59C8
:1001F0004E7C1211127C7F494949363E41414122D1
:100200007F4141413E7F494949417F090909013EFA
:10021000414151737F0808087F00417F4100204021
:10022000413F017F081422417F404040407F021C33
:10023000027F7F0408107F3E4141413E7F0909094A
:10024000063E4151215E7F09192946264949493216
:1002500003017F01033F4040403F1F2040201F3FDC
:100260004038403F63140814630304780403615961
:10027000494D43007F4141410204081020004141A3
:10028000417F04020102044040404040000307084F
:100290000020545478407F2844443838444444284B
:1002A000384444287F385454541800087E090218F2
:1002B000A4A49C787F0804047800447D400020407A
:1002C000403D007F1028440000417F40007C0478BE
:1002D00004787C080404783844444438FC18242406
:1002E0001818242418FC7C08040408485454542486
:1002F00004043F44243C4040207C1C2040201C3C03
:100300004030403C44281028444C9090907C4464F9
:10031000544C44000836410000007700000041368C
:10032000080002010204023C2623263C1EA1A16112
:10033000123A4040207A3854545559215555794144
:100340002154547841215554784020545579400C1B
:100350001E527212395555555939545454593955FC
:100360005454580000457C410002457D420001453F
:100370007C40F0292429F0F0282528F07C545545AC
:10038000002054547C547C0A097F4932494949323F
:100390003248484832324A4848303A4141217A3A54
:1003A00042402078009DA0A07D39444444393D401E
:1003B00040403D3C24FF2424487E4943662B2FFCCB
:1003C0002F2BFF0929F620C0887E09032054547979
:1003D000410000447D413048484A32384040227A4A
:1003E000007A0A0A727D0D19317D2629292F2826C7
:1003F0002929292630484D402038080808080808CF
:100400000808382F10C8ACBA2F102834FA00007B27
:10041000000008142A142222142A1408950022002D
:1004200095AA005500AAAA55AA55AA000000FF00E7
:10043000101010FF00141414FF001010FF00FF1024
:1004400010F010F0141414FC001414F700FF000056
:10045000FF00FF1414F404FC141417101F10101FD5
:10046000101F1414141F00101010F0000000001FC3
:10047000101010101F10101010F010000000FF10CE
:100480001010101010101010FF10000000FF1400CA
:1004900000FF00FF00001F10170000FC04F41414FC
:1004A0001710171414F404F40000FF00F7141414C8
:1004B00014141414F700F7141414171410101F1048
:1004C0001F141414F4141010F010F000001F101F6B
:1004D0000000001F14000000FC140000F010F010D9
:1004E00010FF10FF141414FF141010101F00000050
:1004F00000F010FFFFFFFFFFF0F0F0F0F0FFFFFF54
:100500000000000000FFFF0F0F0F0F0F38444438AA
:10051000447C2A2A3E147E02020606027E027E02E5
:1005200063554941633844443C04407E201E200604
:10053000027E020299A5E7A5991C2A492A1C4C7241
:1005400001724C304A4D4D303048784830BC625AC8
:10055000463D3E494949007E0101017E2A2A2A2A58
:100560002A44445F444440514A444040444A514034
:100570000000FF0103E080FF000008086B6B0836F5
:1005800012362436060F090F060000181800000066
:100590001010003040FF0101001F01011E00191D55
:1005A0001712003C3C3C3C0000000000F0F89C8E20
:1005B0008783878E9CF8F00000FEFF03030303038C
:1005C000070EFCF80000FEFF0303030303070EFC05
:1005D000F80000FFFF00000000000000FFFF000027
:1005E000FEFF8383838383C7EE7C380000F8FC0E14
:1005F00007030303070EFCF800003F7FE0C0808084
:10060000C0E07F3FFFFF01010101010101FFFF0089
:1006100000FFFF0C0C0C0C1C3E77E3C100007FFFB9
:10062000C0C0C0C0C0E0703F1F00001F3F70E0C0EE
:10063000C0C0E0703F1F00007FFFC1C1C1C1C1E366
:10064000773E1C00001F3F70E0C0C0C0E0703F1F3D
:10065000000000000001FFFF01000000D5F08D1434
:10066000A1C881CFD9F1AF20005370656374616375
:10067000756C6172204A6F622042726F210054696A
:100680006D6520447564652100426574746572204F
:100690004C75636B204E6578740047414D45204F83
:1006A00056455200F7007D00F7007D0000007D00F8
:1006B000C4007D00C4007D0000007D00A5007D0019
:1006C000A5007D000080DC037D000080F7007D0038
:1006D000F7007D00F7007D00008050524553532005
:1006E000414E5920425554544F4E005249474854A8
:1006F0003A436C656172204869676873636F72651D
:1007000000536F756E643A4F666600536F756E6482
:100710003A4F6E0080400000000000000000000022
:1007200000000000000000000000000000000000C9
:10073000000000C0C030303030C0C00000F0F030E9
:10074000303030C0C00000F0F03030303030300099
:1007500000F0F030303030C0C000003030F0F03009
:1007600030000030303030F0F0303030300000C039
:10077000C030303030303000000000000000000099
:100780000000000000000000000000000000000069
:100790000000000000000000000000000001010156
:1007A0000101010101010101010101010101010139
:1007B0000000000F0F303030300C0C00003F3F03C2
:1007C000030F0F303000003F3F33333333303000FE
:1007D000003F3F303030300F0F000030303F3F30AF
:1007E000300000000000003F3F000000000000302B
:1007F00030333333330C0C000000010101010101DF
:1008000001010101010101010101010101010100D9
:100810000000000000000000000000000000E010E8
:1008200010A000E01010E000F01010E000F05050B8
:1008300010000000000000000000000000000000A8
:1008400000000000000000000000000000000000A8
:100850000000000000000000000000000000000098
:100860000000000000000000000000000000000088
:100870000000000000000000000000000000000078
:100880000000000000000000000000000000000068
:10089000000000000000000000000000C424A425A7
:1008A000C504C4A4A5C504E4A5A54504E42525C53F
:1008B000050404000000E0A0A02000E0000000000B
:1008C000C0A0A0C000E0408040E00020E02000E0A8
:1008D0004080E000C020A08000C02020C0000000B8
:1008E000000000000000000000001C22221C003E4E
:1008F0000A1A2480A23E22009CA22A1880223E22AC
:10090000803E8488BE803C0A0A3C003E20202000B5
:10091000000000000000000000000000718AAA49E9
:100920007100FB28281300FB2021FA00F32A2AF18A
:1009300000FA2A6A9200F32828F000FB2A2A120003
:100940000300000300030000000300020302000391
:100950000000030001020201000102020100000088
:100960000000000000000000202020202020202087
:10097000202027282A26202F22222F202F21222123
:100980002F202F2A2A28202020202020202020202D
:100990002020200000000000000000000000F028DF
:1009A00028F000F8286890000808F80808000000FF
:1009B00040B0A8D8A0000000F8102010F8007880FF
:1009C00080780090A8A8480088F88800708888502F
:1009D0000000000000000000000000000000000017
:1009E0007C4444380038444438007C08107C00388B
:1009F0004454300000007C08107C0038445430001F
:100A00003C40403C000C1070100C007C54544400DE
:100A10007C08107C0000000000000000C222A2221E
:100A2000C202C2A2A2C202E2A2A24202E22222C2E6
:100A3000020202020202E2A2A22202E20202020276
:100A4000C2A2A2C202E2428242E20222E22202E206
:100A50004282E000C020A08000C02020C000000032
:100A60000000000000000000000000000000000086
:100A70000000000000000000000000000000000076
:100A80000000000000000000000000000000000066
:100A90000000000000000000000000000102020150
:100AA0000100030000030003000102000302020131
:100AB0000002020202000300000000030202020022
:100AC0000300000300030000000300020302000310
:100AD0000000030001020201000102020100000007
:100AE0000000000000000000000000000000000006
:100AF00000000000000000000000000000000000F6
:100B000000000000000000000000000000000000E5
:100B100000000000000080140000008080808080C1
:100B2000808080808080808080808080800000F84D
:100B3000F880808080F8F800001818F8F81818007D
:100B400000E0E01818989880800000F8F880808015
:100B500080F8F8000060609898989818180000E0F5
:100B6000E01818181860600000E0E018181818E085
:100B7000E00000F8F89898989860600000F8F898FD
:100B800098989818180000808080808080808080ED
:100B900080808080808080000000000000000000D5
:100BA0000000000000000000000000000000001F26
:100BB0001F010101011F1F000018181F1F18180036
:100BC00000070718181919070700001F1F01010166
:100BD000011F1F000018181919191906060000072F
:100BE000071818181806060000070718181818071D
:100BF0000700001F1F01010707181800001F1F1919
:100C00001919191818000000000000000000000069
:100C100000000000000000000000000000000000D4
:100C200000000000000000000000000000000000C4
:100C300000000000000000000000000000000000B4
:100C400000000000000000000000000000000000A4
:100C50000000000000000000000000000000000094
:100C60000000000000000000000000000000000084
:100C70000000000000000000000000000000000074
:100C80000000000000000000000000000000000064
:100C9000000000000000000004051F1F0E0480403B
:100CA000FF01010101010101010101010101010136
:100CB0000101010101010101010101010101010124
:100CC0000101010101010101010101010101010114
:100CD000010101FFFFFFFF010101F1F1313131316C
:100CE00031010101F1F101010101010101018181E4
:100CF0006171313171618181010101F1F131313174
:100D000071E1C10101F1F13131313171E1C1010113
:100D1000010181C1E1E1617171F1E1C1810101FF75
:100D2000FF000000000000000000000000000000C4
:100D300000000000000000000000000000000000B3
:100D400000000000000000000000000000000000A3
:100D5000000000FFFFFFFF000000FFFF060600008D
:100D600000000000FFFF8080808080000000FFFF07
:100D7000181818181818FFFF000000FFFF0C0C0CC3
:100D80000C0E070300FFFF0C0C0C0C0C0E070300ED
:100D9000001E7F7FE1C0C0C0C0E0F97F1F0000FFE0
:100DA000FF00000000000000000000000000000044
:100DB00000000000000000000000E0E060606060F3
:100DC00060606060FEFE060606060606060606066B
:100DD000060606FFFFFFFF00000001010000000003
:100DE00000000000010101010101010000000101FA
:100DF00000000000000001010000000101000000EF
:100E000000000000F0F13170706060600000E0E010
:100E1000C00000008080C0C000000000000000FF93
:100E2000FF1818181818FFFF030303030303030335
:100E3000FFFFC0C0C0C0C0C0C0C0FFFFC0C0C0C0B6
:100E4000C0C00000FFFF0000000000000000000024
:100E5000000000FFFFFFFF00000000000000000096
:100E60000000000000000000000000000000000082
:100E70000000000000000000000000000000000072
:100E8000E0F07C1F0F0D1C1C1818000080C0E0F360
:100E90007F7FFEEFC703010100000000000000FF9C
:100EA000FF30303030303F3F30F0F00000000000C5
:100EB000FFFF000000000000000000008080808034
:100EC000FFFF8080FFFF8080000000000000000026
:100ED000000000FFFFFFFF00000000000000000016
:100EE00000485454240004047C040400781414784A
:100EF000007C1434480004047C040400000000005A
:100F000000000000000000000000000303030100D7
:100F1000000000030707000000000000000000FFC1
:100F2000FF0000000000000000FFFF0000E0E060A4
:100F30007F7F60606060E0E000000000FFFF010173
:100F4000010101010101FFFF00000000000000009D
:100F5000000000FFFFFFFF00000000000000000095
:100F6000001C22221C003E0A0A040002023E020269
:100F700000223E22001C22221C003E04083E0024C7
:100F80002A2A1200000000000000000000000000FB
:100F9000000000000000000000000000000000FF52
:100FA000FF0000000000000000FFFF0000FFFF0046
:100FB000000000000000FFFF00000000FFFF000035
:100FC000000000000000FFFF000000000000000023
:100FD000000000FFFFFFFF00000000000000000015
:100FE000001F84841F00919F91000E91958C801F9B
:100FF00084849F0012959589008E91918A800E11AC
:10100000918E801F050D12001F15151100000000A4
:10101000000000000000000000000000000000FFD1
:10102000FF8080808080808080FFFF8080FFFF8045
:10103000808080808080FFFF80808080FFFF8080B4
:10104000808080808080FFFF8080808080808080A2
:10105000808080FFFFFFFF80808080808080808094
:101060008087888885808F828689808F8A8A888019
:101070008F88888780888F888080808F8080808913
:101080008A8A848080808080808080808080808048
:10109000808080808080808080808080808080FFD1
:1010A0003232FD020101010101818181F1F1F17111
:1010B0007171717171818181010101010101010170
:1010C0000101010101010101010101010101010110
:1010D000010102FDFF000000FCFCFCFFFFFF030319
:1010E000031C1C1C1C1C1C030303FCFCFC00000058
:1010F00000000000000000000000000000000000F0
:101100000000000000FFFF0000003F3F3FFFFFFF27
:10111000C0C0C03F3F3FFFFFFFC0C0C03F3F3F00D8
:101120000000183C3C3C3C3C3C3C3C3C3C3C3C3C9B
:1011300018000000000000FFFF0000000000000198
:101140000101810181008000810101010101000094
:1011500000F0F0F0FEFEFE0E0E0E8E8E8E8E8E8E47
:101160008E8E8E707070000000FFFF000000000087
:101170000000AAFF01012921290101FFAA000000A6
:10118000000000FFFFFFFFFFFF000000E3E3E3E3D9
:10119000E3E31F1F1F000000000000FFFF0000002E
:1011A000000000000001030103010301030100002E
:1011B00000000000000707073F3F3F3838380707A7
:1011C00007000000000000000000000000FF020116
:1011D00002020202020202020202020202020202EF
:1011E00002020202020202020202020202020202DF
:1011F00002020202020202020202020202020102D0
:10120000080B0002020200000904000001020200B3
:101210000005240010010524010101042402060533
:1012200024060001070581031000400904010002A3
:101230000A00000007050202400000070583024083
:1012400000000403090412010002EF0201404123DF
:10125000368000010102030141726475696E6F20DE
:101260004C4C430041726475626F79008020C0402D
:101270004040404040C0000000000000000000006E
:1012800000000000000000000000C040404040F0AE
:1012900010101010101010101010F040404040407E
:1012A0004040C0000000000000F0101010101010AE
:1012B000101010101010F0000000000000008080DE
:1012C00080E0202020202020202020E000008080BE
:1012D0008080808080F8080808080808080808F856
:1012E00000E02020202020202020202020E0FF00DF
:1012F0000000000000FF1212121E101FF101010178
:1013000001010101FF1010F808080F080808080F74
:1013100008F80000000000000000FF0000000000CE
:101320000000FF1111111111111FF0000000000049
:101330000000F01010101F11111FF42424243F206E
:10134000203FE000000000E02020203F21213FE07E
:101350000000000000FF000000000000FE02020389
:1013600002C3427E40404040C000000000FFFF003A
:101370000000000000FF000000000000FF0000006F
:1013800000FF010101010101FF000000000000E079
:10139000203F202020E000000000FF0000000000AF
:1013A0000000FF00000000F808080F0808F800001F
:1013B0000000FF0000000000FC0407040404FC001F
:1013C0000000FF00000000FF00000000000000FF20
:1013D00001010101010101FF02020202030202FEFA
:1013E00000FF000000000000FF00000000FFFF8081
:1013F0008080808080FF808080808080FF808080EF
:1014000080FF808080808080FF808080808080FF5F
:101410008080808080FF80808080FF8080808080CE
:101420008080FF80808080FF8080808080FF80803F
:101430008080FF8080808080FF8080808080FF802F
:101440008080FF80808080FF80808080808080FF1F
:1014500080808080808080FF80808080808080FF8E
:1014600080FF808080808080FF80808080FF5F158B
:1014700011241FBECFEFDAE0DEBFCDBF11E0A0E048
:10148000B1E0E2E2F6E402C005900D92AA34B107A1
:10149000D9F72AE0AAE4B1E001C01D92A435B20751
:1014A000E1F71AE0C8E3DAE004C02197FE010E94E8
:1014B0000923C733D107C9F70E94B0150C940F2335
:1014C0000C940000809168010895EFEBF1E0A0E03A
:1014D000B8E000800EBC8111012C1197A0FDFDCF5A
:1014E0000192B9F70DB40895480F592F511D1416E4
:1014F000150684F5803891056CF597FF02C090E0E1
:1015000080E04138510514F040E850E0481BFB01F1
:10151000E770FF2721E001C0220FEA95EAF777FF85
:1015200002C0695F7F4FFB0133E0F595E7953A957F
:10153000E1F7F695FE2FEE27F795E795E80FF91FEF
:10154000E154FE4F415030F08191DF011197822B21
:101550008C93F8CF0895FC0180918B01882311F1C1
:101560003FB7F89482E08093E9002091F200822F47
:1015700090E01816190614F481E090E0882339F001
:10158000289844E640938A014091F1004083222349
:1015900039F02091F200211103C02BE62093E800DE
:1015A0003FBF08958FEF9FEF08952FB7F89483E022
:1015B0008093E9009091E800892F807295FF04C024
:1015C0009091F20080E4891B2FBF089580918201E1
:1015D00081110DC082E080937E0184E080937F01C1
:1015E000109281011092800181E0809382018EE748
:1015F00091E00895CF93DF931F92CDB7DEB7698353
:10160000DC01ED91FC910280F381E02D41E050E09E
:10161000BE016F5F7F4F09950F90DF91CF910895C5
:1016200083E08093E9008091F200882319F08AE337
:101630008093E80008950E94D50A90E00895CF9322
:10164000DF931F92CDB7DEB7FC018485958597FDAA
:1016500008C02FEF3FEF358724870F90DF91CF91A0
:101660000895CE0101960E94AB0A019719F4898171
:1016700090E0F3CF8FEF9FEFF0CF0F931F93CF93B7
:10168000DF931F92CDB7DEB78C01FC018485958571
:1016900097FF0BC0CE0101960E94AB0A019771F42F
:1016A000898190E0F80195878487F8018485958584
:1016B0000F90DF91CF911F910F9108958FEF9FEFC2
:1016C000F1CFFC018485958597FD0BC09FB7F894F9
:1016D00082E08093E9008091F2009FBF90E0019644
:1016E00008959FB7F89482E08093E9008091F2001A
:1016F0009FBF90E008954091780150917901209129
:1017000076013091770142175307B4F49091E800C5
:101710009570E1F39091E80092FD19C08093F1007B
:10172000809178019091790101968F739927892B87
:1017300019F48EEF8093E8008091780190917901FF
:101740000196909379018093780181E0089580E07B
:101750000895DF92EF92FF920F931F93CF93DF9341
:10176000D82E8A01EB017B01E40EF51ECE15DF05B4
:1017700059F0D7FE12C0FE0184910E947B0B219686
:101780008111F4CF0FEF1FEFC801DF91CF911F91AF
:101790000F91FF90EF90DF9008958881EECF0F9327
:1017A0001F93CF93DF931F92CDB7DEB782E089837B
:1017B00042E450E060E072E180E80E94A90B0E94E0
:1017C000E60ADC0112960D911C910115110589F0B4
:1017D000D801ED91FC910280F381E02DBE016F5F95
:1017E0007F4FC801099597FD04C0F8010085118558
:1017F000ECCF89810F90DF91CF911F910F910895C8
:10180000615030F02091F100FC0120830196F8CF67
:10181000289884E680938A010895AF92BF92CF9270
:10182000DF92EF92FF920F931F93CF93DF936C01A0
:101830007B018B01040F151FEB015E01AE18BF0881
:10184000C017D10759F06991D601ED91FC91019033
:10185000F081E02DC6010995892B79F7C501DF914B
:10186000CF911F910F91FF90EF90DF90CF90BF909D
:10187000AF900895FC010E94D10C319728F0685177
:101880007C4F8F4F9F4FF9CFAB01FC010E94D10CD1
:10189000641775078E079F07C8F308958F929F926C
:1018A000AF92BF92CF92DF92EF92FF920F931F936E
:1018B000CF93DF936C017B018A0180910C01882317
:1018C00009F45AC080918B01882309F455C0809196
:1018D0007D0180FF05C08091E00082608093E00080
:1018E000E801B12C8AEFA82E93E0892E2AE3922EEC
:1018F000209711F4BB20C9F10E94D50A811108C0BC
:10190000AA94AA20C9F181E090E00E943A0CF0CF9D
:101910008C171D0611F00CF08C2F9FB7F894809255
:10192000E9002091E80025FD02C09FBFE1CF282FEC
:1019300030E0C21BD30BF701815020F0419140935E
:10194000F100FACFE20EF31EBB2021F09092E800E6
:10195000B12CEBCF8091E80085FDE7CF9092E800B5
:10196000BB24B394209709F3F3CF5D9884E680936A
:101970007C01101611063CF081E090E0F6019383A3
:10198000828310E000E0C801DF91CF911F910F9199
:10199000FF90EF90DF90CF90BF90AF909F908F908F
:1019A0000895A2E6B1E02FB7F8947D918D919C91B6
:1019B00066B52FBFA89B05C06F3F18F47F5F8F4FA0
:1019C0009F4F22E0660F771F881F991F2A95D1F736
:1019D000089520915901E0915701F0915801CF01EC
:1019E00002969093580180935701222319F0859114
:1019F00094910895808191810895CF92DF92EF9222
:101A0000FF92CF93DF930E94E90C811520E89207A3
:101A100091F4809171008D7F8093710010929100FC
:101A20004698479810925601DF91CF91FF90EF9022
:101A3000DF90CF90089521E020935601813020E877
:101A4000920751F48091540190915501909358015F
:101A5000809357010E94E90C97FD05C02091530126
:101A6000222309F454C020915201211150C021E0D9
:101A700020935A01EC01DF77209709F04BC081E0F9
:101A800080935B0146983FE9C32E3FE0D32EE12CC3
:101A9000F12CCAEFD0E0E0911D06F0911E060995E9
:101AA000811103C081E080935B0180915A018823FA
:101AB00029F080915B01882309F43FC047980E9478
:101AC000E90C0097F1F19C01DE010E94A820DC01E5
:101AD000CB0129E0B595A795979587952A95D1F7DC
:101AE000109290002AE020939100D0929900C09229
:101AF000980080935C0190935D01A0935E01B09388
:101B00005F01809171008260809371008DCF10928F
:101B10005A01B0CF9E0150E040E060E472E48FE0F3
:101B200090E00E94542069017A0181E0C81AD1082E
:101B3000E108F10810925B01AECF4699BFCF479AFA
:101B4000BECF8FEF9FEFDC01CBCF9C01E1E7F0E050
:101B500090819D7F908381E080935901309358015B
:101B60002093570130935501209354010C94FD0CA0
:101B70004F925F926F927F928F929F92AF92BF929D
:101B8000CF92DF92EF92FF920F931F93CF93DF9349
:101B90004C01FC2DC02FD0E0DE01A80FB91F1A1692
:101BA0001B060CF054C080E8881691040CF04FC05E
:101BB000CB018E0D911D892B09F449C0603471054C
:101BC0000CF045C04115510509F441C0962F97709E
:101BD00013E0759567951A95E1F7162FAA24BB2493
:101BE000A818B90897FC02C0B12CA12CA038B105E7
:101BF00014F000E808190A19E1E08E2D877009F445
:101C0000E0E0E694E694E694EE0EDB01AE0DB11D45
:101C100019971CF0E8E0EE2EE61ADB01B695BA2F14
:101C2000AA27B795A795A80DB91DAA0DBB1D4A0DEA
:101C30005B1D892E092E000C9908F33009F40DC1A3
:101C4000B8F4F13009F4C3C0F23009F447C0DF91B1
:101C5000CF911F910F91FF90EF90DF90CF90BF90A9
:101C6000AF909F908F907F906F905F904F9008956E
:101C7000FA3F09F479C0FB3F51F7812F861B8E157F
:101C800030F79D0121543E4FD12CC12CC01608F0D5
:101C900098C0FA01EC0DFD1DA490B12C082C02C0D7
:101CA000AA0CBB1C0A94E2F717FD07C0F90180815A
:101CB000EA2DE0958E23F9018083992349F01730AE
:101CC0003CF4F901E058FF4FB09480818B21808370
:101CD000FFEFCF1ADF0A2F5F3F4FD8CF66246A94F9
:101CE000712C092E02C0660C771C0A94E2F76094EE
:101CF0007094572C812F861B8E1508F0A8CF9D015C
:101D000021543E4FD12CC12CC01618F5FA01EC0D10
:101D1000FD1DA490B12C082C02C0AA0CBB1C0A9477
:101D2000E2F717FD05C0F901808186218A298083A9
:101D3000992349F017303CF4F901E058FF4F8081B6
:101D400085218B298083FFEFCF1ADF0A2F5F3F4F5A
:101D5000DBCF4C0F5D1FA058BF4F1F5FCBCF4C0F89
:101D60005D1FA058BF4F1F5F812F861B8E1508F087
:101D70006ECF9D0121543E4FD12CC12CC01678F757
:101D8000FA01EC0DFD1DA490B12C082C02C0AA0C88
:101D9000BB1C0A94E2F717FD04C0F90180818A296F
:101DA0008083992341F0173034F4F901E058FF4F54
:101DB00080818B298083FFEFCF1ADF0A2F5F3F4F8F
:101DC000DDCF4C0F5D1FA058BF4F1F5F56CFA20E37
:101DD000B31E812F861B8E1508F039CF9D0121542B
:101DE0003E4FD12CC12CC01680F5F501EC0DFD1D28
:101DF0006490712C082C02C0660C771C0A94E2F7E0
:101E000060947094FA01EC0DFD1D4490512C082C47
:101E100002C0440C551C0A94E2F717FD05C0F901F5
:101E20008081862184298083992349F017303CF4EE
:101E3000F901E058FF4F8081872185298083FFEFDA
:101E4000CF1ADF0A2F5F3F4FCECF4C0F5D1FAC0E76
:101E5000BD1EA058BF4F1F5FBCCFC02ED12CA40EFB
:101E6000B51EA154BE4F20E830E02C193D09CC1915
:101E7000DD09AE01440F551FC1E0D0E06E01092E0F
:101E800001C0CC0C0A94EAF77E2DE02EF501F92E64
:101E9000CF93DF93ED01EF96EF96229665908590B4
:101EA000FF2059F06C9C30018C9C400167302CF471
:101EB000A8809094A920A728A99266233AF0AC9014
:101EC0008094A820A628AD920C94670F11960A95CD
:101ED00029F77A9551F00E2D63951124E40FF11D29
:101EE000A20FB11DC20FD11DD9CFDF91CF91112407
:101EF000AECECF92EF920F93FA0104913196E49017
:101F00004E5F5F4F22E0C22E30E020E00E94B80D0D
:101F10000F91EF90CF900895CF92EF920F93ECE650
:101F2000F2E10491EDE6F2E1E4902AEFC22E30E016
:101F300020E04EE652E160E270E00E94B80D0F91A1
:101F4000EF90CF90089590E00C943A0C8FB180956B
:101F5000807F669B88601C9B846008951092680156
:101F60003E983F9808953E9A3F9A81E08093680199
:101F7000089590E1282F81E061FD84E060FD880FE5
:101F800062FD8295687F969FD0011124A20FA15413
:101F9000BE4F0C90082A40FF08260C920895EF923D
:101FA000FF920F931F93CF93DF937C018B01040F5C
:101FB000111DEB0177FF02C0D0E0C0E0C801013481
:101FC000110514F080E490E0C817D9075CF480E8AC
:101FD000E816F10428F441E0BE01C7010E94B90FE0
:101FE0002196ECCFDF91CF911F910F91FF90EF9051
:101FF00008952F923F924F925F926F927F928F92AD
:102000009F92AF92BF92CF92DF92EF92FF920F9387
:102010001F93CF93DF9300D01F92CDB7DEB76C0133
:102020005B01242F30E03B832A83440F4F5F621B08
:10203000730B0E94CF0F01E010E08A819B81081B87
:10204000190B1C01319421943108220C331CF12C02
:10205000E12C66246394712C2A813B81E216F306FD
:102060000CF03FC017FD09C0215031093B832A8382
:1020700032E0230E311C020D131D8FEFE81AF80A0F
:1020800092E0690E711C060D171D8A81880F8F5F03
:102090008983482F25012A813B81421A530AB201C4
:1020A000C7018C0D9D1D0E94CF0F45018E189F0802
:1020B000462DB4018A819B818C0D9D1D0E94CF0FFE
:1020C0004981B201C6018E199F090E94CF0F462D8A
:1020D000B401C6012A813B81821B930B0E94CF0F62
:1020E000BBCF0F900F900F90DF91CF911F910F9169
:1020F000FF90EF90DF90CF90BF90AF909F908F9028
:102100007F906F905F904F903F902F900895CF9267
:10211000DF92EF92FF92CF93DF93CBE3DAE06C8113
:102120007D818E819F810E949B216B0168817981D5
:102130008A819B810E949B21CB014C89B601DF9152
:10214000CF91FF90EF90DF90CF900C94F90F2F92EA
:102150003F924F925F926F927F928F929F92AF9237
:10216000BF92CF92DF92EF92FF920F931F93CF9384
:10217000DF9300D000D01F92CDB7DEB76D30C9F02D
:10218000409000016090690170906A01042D10E098
:102190006A3049F510926C0110926B0183E0000FD8
:1021A000111F8A95E1F7600E711E70926A016092AC
:1021B000690181E090E00F900F900F900F900F90C9
:1021C000DF91CF911F910F91FF90EF90DF90CF9013
:1021D000BF90AF909F908F907F906F905F904F9047
:1021E0003F902F90089520906B0130906C01E5E0B6
:1021F0006E9FC001112484559F4F9D838C83610184
:10220000512CF5E05F1651F18C819D810196EC8196
:10221000FD81F491F9839D838C83430128E02A8317
:10222000898181708B8376018E2D8C198415E0F461
:10223000B12CA12CA414A0F490E8E916F10450F4F8
:10224000B4016A0D7B1D6034710520F44B81C70118
:102250000E94B90FEFEFAE1ABE0AECCF1982DDCFA4
:10226000FFEFEF1AFF0AE0CF2981269529838A81A3
:1022700081508A83800E911E8111D2CF5394C00E5B
:10228000D11E96E05912BDCFC101459C800D911D14
:10229000112490936C0180936B018BCF0F931F934C
:1022A000CF93DF938C01D0E0C0E0F801EC0FFD1F6D
:1022B0006491662341F080E59AE00E94A710892B83
:1022C00011F02196F2CFCE01DF91CF911F910F91A6
:1022D000089590916601982329F4909167019823BD
:1022E00081E009F480E0089580E00C94650A089587
:1022F00090E080E008958F929F92AF92BF920F93EB
:102300001F93CF93DF93CDB7DEB7A1970FB6F894A5
:10231000DEBF0FBECDBF19A2423008F44AE08E01E5
:102320000F5D1F4F842E912CB12CA12CA50194017F
:102330000E948620E62FB901CA01EA3044F5E05D2B
:10234000D801EE938D01232B242B252B79F790E0D8
:1023500080E0109769F0FD0101900020E9F73197C6
:10236000AF014A1B5B0BBD0180E59AE00E940D0C9A
:10237000A1960FB6F894DEBF0FBECDBFDF91CF910F
:102380001F910F91BF90AF909F908F900895E95C3F
:10239000D7CFCF93DF930E944E11EC0142E050E083
:1023A00066E471E080E59AE00E940D0C8C0F9D1FA1
:1023B000DF91CF910895CF93C091BA0180EC94E062
:1023C0000E942C20C81729F06C2F80EC94E00E940A
:1023D0004620C091BB0181EC94E00E942C20C817DC
:1023E00029F06C2F81EC94E00E9446208AEB91E06A
:1023F000CF9108951F920F920FB60F9211248F93D1
:102400009F938091E1009091E100937F9093E10090
:1024100083FF0FC01092E90091E09093EB001092BF
:10242000EC0092E39093ED0010928B0198E0909372
:10243000F00082FF22C093E09093E9009091F200B7
:10244000992319F09AE39093E80090917C019923E5
:1024500041F090917C01915090937C01911101C0C9
:102460005D9A90918A01992341F090918A0191504F
:1024700090938A01911101C0289A84FF18C080911D
:10248000E2008E7E81608093E2008091E1008F7E89
:102490008093E10080917D018E7E806180937D013B
:1024A0009F918F910F900FBE0F901F90189580FFF6
:1024B000F7CF8091E2008E7E80618093E200809170
:1024C000E1008E7E8093E10080917D018E7E8160AF
:1024D000E5CF1F920F920FB60F921124CF92DF9289
:1024E000EF92FF920F931F932F933F934F935F931E
:1024F0006F937F938F939F93AF93BF93EF93FF93CC
:10250000CF93DF93CDB7DEB76C97DEBFCDBF109210
:10251000E9008091E80083FF25C068E0CE01459680
:102520000E94000C82EF8093E8008D8987FF39C0FC
:102530009091E80090FFFCCF982F907609F034C17D
:102540009E894F89588D2F89F88C911131C0803820
:1025500061F580917B018093F1001092F1008EEF84
:102560008093E8006C960FB6F894DEBF0FBECDBF27
:10257000DF91CF91FF91EF91BF91AF919F918F919B
:102580007F916F915F914F913F912F911F910F918B
:10259000FF90EF90DF90CF900F900FBE0F901F90A5
:1025A00018959EEF9093E800C7CF1092F100D5CF19
:1025B000913059F48111D3CF4130510581F680918A
:1025C0007B018D7F80937B01CACF933049F48111C9
:1025D000C6CF4130510519F680917B018260F2CF60
:1025E000953041F48091E80080FFFCCF2068209373
:1025F000E300B5CF963009F0A9C00B8D1C8D22E009
:102600001092E9001092790110927801F2122EC016
:1026100010927701109276010E94CF0B1F8299E0F1
:102620009983FA8291E09E8390EA98879AEF99873E
:102630002091780130917901275F3F4F3C832B83B4
:102640008D831092E9001092790110927801109315
:1026500077010093760149E050E0BE016F5F7F4F44
:1026600080E00E94A90B0E94CF0B79CF10937701D5
:10267000009376010E94E60ADC0112960D911C91EE
:102680000115110509F451C1D801ED91FC910480A7
:10269000F581E02DBE016B5E7F4FC8010995009763
:1026A00009F03EC1F80100851185EACFF3E0FF1281
:1026B0000EC08F89882309F440C0823061F440E85D
:1026C00067E084E692E10E942C15811148CF81E2F7
:1026D0008093EB0047CF813029F440E86BE088E538
:1026E00092E1F1CF833099F70E94E60ADC0112965D
:1026F000ED90FC908E010F5F1F4F6801E114F10413
:1027000079F0D701ED91FC910680F781E02DB801B9
:10271000C7010995080F111DF701E084F184EECF80
:10272000D8011C92F60101900020E9F73197BF0112
:102730006C197D0940E0C601C6CF62E472E1FB017D
:10274000449150E080E80E94A90B09CF973009F42A
:10275000BECF983021F481E08093F10000CF993012
:1027600009F0FDCE837009F0B2CFE2E2F1E081E042
:1027700031E096E32191222371F08093E9003093B8
:10278000EB00DF0111972C912093EC009093ED006A
:102790008F5F873079F78EE78093EA001092EA0026
:1027A0008F8980938B01DBCE8B8D9C8D1092E900FD
:1027B00010927901109278019093770180937601BD
:1027C000898D811192C08E899D89913A49F4813217
:1027D00009F07DCF47E050E065E071E080E0B3CFE5
:1027E000913209F074CF833269F48F89988DB0E00B
:1027F000A0E08093010190930201A0930301B093A4
:102800000401ADCE803269F48091E80082FFFCCFF4
:1028100067E085E091E00E94000C8BEF8093E80078
:102820009ECE823209F09BCE8F8980930C01EEEF11
:10283000FFE7859194918B3F9C4D51F1E0E0F8E0EA
:102840008091050190910601A0910701B0910801C6
:10285000803B9440A105B105F1F480910C0180FD0D
:102860001AC0EE3F8AE0F80789F587E797E791837A
:1028700080838091600080937A0188E19BE00FB6AD
:10288000F894A895809360000FBE9093600067CE87
:10289000EEEFFAE0D5CF808191818737974709F035
:1028A0005ECEA895809160008861809360008091E1
:1028B0007A0180936000EE3F2AE0F20789F0809170
:1028C000FE0A9091FF0A9183808349CE8081918195
:1028D0008737980751F29093FF0A8093FE0AC5CF7D
:1028E0001092FF0A1092FE0A3ACE0E94E60ADC011C
:1028F00012960D911C910115110509F4E8CED8012D
:10290000ED91FC910190F081E02DBE016B5E7F4F57
:10291000C8010995811123CEF80100851185EBCFFF
:10292000181619060CF41BCED2CEF1E0FF12BECE63
:1029300066E472E104CF0F920FB68F939F93EF93EB
:10294000FF93809161018D5F8D3708F08D578093E3
:102950006101E2E7F1E080818E4F808391819F4F9A
:10296000918382818F4F828383818F4F8383E2E6BD
:10297000F1E080818F5F808381818F4F81838281AD
:102980008F4F828383818F4F83838FB18F6066994E
:102990001C9B88278F3681F480916001981B9630AC
:1029A00068F0E0E0F8E087E78083818388E1809346
:1029B0006000F0936000FFCF90936001FF91EF9172
:1029C0009F918F910FBE0F9018951F920F920FB687
:1029D0000F9211242F933F934F935F936F937F93A5
:1029E0008F939F93AF93BF93EF93FF9380915C017D
:1029F00090915D01A0915E01B0915F010097A105EA
:102A0000B10539F120915B01211105C0369A209161
:102A10005A012111379A0197A109B109B7FD08C0E0
:102A200080935C0190935D01A0935E01B0935F0180
:102A3000FF91EF91BF91AF919F918F917F916F9196
:102A40005F914F913F912F910F900FBE0F901F906C
:102A500018950E94FD0CECCFEF92FF920F931F93FD
:102A6000CF93DF93F82E192FE62E042F81E0860FE7
:102A7000880F0E947B0B83E00E947B0BCF2DD12F10
:102A8000EC0EFD2EF11CCE15DF05B9F007FF13C0CB
:102A9000FE0184910E947B0B182F80E00E947B0B2B
:102AA000812321968111EFCFDF91CF911F910F915B
:102AB000FF90EF9008958881EDCF81E0F5CF1092DF
:102AC000C2051092C10588EE93E0A0E0B0E08093CB
:102AD000C3059093C405A093C505B093C6058CE2C9
:102AE00091E09093C0058093BF058FEF9FEF909387
:102AF000CC058093CB051092530A1092520A8EE3B4
:102B000091E09093510A8093500A85E080934F0A98
:102B100088E599E3A4EBBCE380931F06909320061D
:102B2000A0932106B0932206EFE1F6E091E084EB5A
:102B300094A385A37A962AE0EF32F207C9F782E6DA
:102B40009AE090931E0680931D0680E090E8909393
:102B50001C0680931B0646983E9A47983F9A089514
:102B6000CDB7DEB72897DEBFCDBF789483E084BDB4
:102B700083E085BD81E080936E00E1E8F0E083E0D2
:102B80008083E0E881E08083E1E983E08083E0E91D
:102B900081E08083E1EC87E08083E3EC81E0808367
:102BA000E0EC82E08083E2EC81E08083EAE787E08A
:102BB00080838068808310928B0110927B01109239
:102BC0007D018091D70081608093D70080EA809357
:102BD000D80089B5806189BD89B5826089BD09B495
:102BE00000FEFDCF81E090E00E943A0C8091D80079
:102BF0008F7C80618093D8008091E000807F8093FB
:102C0000E0008091E1008E7E8093E1008DE0809372
:102C1000E200559A209A81EC80937C0081EF85B97F
:102C200087EE84B982E38BB982EF8AB9769A6E987F
:102C300080EF81BB10BA80E58CBD81E08DBD85E061
:102C40000E94A30F5F9A85E00E94A30F5C98ECE5B9
:102C5000F6E085918EBD00000DB407FEFDCFE9368C
:102C6000C1F75C9A81E88093640081E080936500FD
:102C70000E9474110E94A60F87FF15C05C9885EA18
:102C80008EBD00000DB407FEFDCF5C9A2E982F98E4
:102C90002D988091640080628093640081E083BFFE
:102CA000889513BEFCCF0E94A60F82FF37C02D98D7
:102CB0000E94A60F84788438A1F42D9A88EC0E9493
:102CC000A30F2F986FEF82E090E00E94342084EFF2
:102CD00091E00E943A0C2F9A0E94A60F84788438C3
:102CE000D9F30E94A60F84718431A1F42D9A88EC47
:102CF0000E94A30F2E9860E082E090E00E943420B2
:102D000084EF91E00E943A0C2E9A0E94A60F8471E3
:102D10008431D9F388EC0E94A30FC5CF2D9A82E0AD
:102D200090E00E942C20882309F4F3C00E94B30F86
:102D300081E090E00E942C20182F147081FF0CC0BD
:102D400011112E98B1EF8B2E99249A940E94A60F00
:102D500086FFE2C02E9A2F9A82E30E94A30F0E9460
:102D6000A60F8111F9CF809164008E7F809364005B
:102D700080917A00806480937A0080917A0086FD49
:102D8000FCCF00917800109179000E94D10CAB012A
:102D9000BC01C801B0E0A0E0DC01992788278C01C4
:102DA0009D01040F151F261F371FC901B80120916F
:102DB000640021602093640061157105810591050F
:102DC00011F00E9423202FB7F89480917201909106
:102DD0007301A0917401B09175012FBF80939F0181
:102DE0009093A001A093A101B093A20180E090E094
:102DF000ACE6B2E480933B0A90933C0AA0933D0A70
:102E0000B0933E0A80E090E0A8EDB1E480933F0AE1
:102E10009093400AA093410AB093420A1092A701EE
:102E20001092A8011092A9011092AA0180E090E0EE
:102E3000A0E0B3E48093AB019093AC01A093AD010B
:102E4000B093AE018DEC9CECACECBDE38093AF0194
:102E50009093B001A093B101B093B2018DEC9CECC2
:102E6000ACE4BDE38093470A9093480AA093490AD3
:102E7000B0934A0A8AE999E9A9E9BFE380934B0A2A
:102E800090934C0AA0934D0AB0934E0A81E0809330
:102E9000B30199E19093B4018093B50122EF3FEF24
:102EA00030938D0120938C018EE0809390013093BC
:102EB0009501209394018093980180EC94E00E9406
:102EC0002C208093BA0181EC94E00E942C20809306
:102ED000BB018091BC019091BD01863C944051F0B2
:102EE0001092BB011092BA0186EC94E09093BD0160
:102EF0008093BC01009170010983002309F4B5C0DF
:102F00001092700180E090E0892BA1F30E940000F4
:102F1000F1CF0E94AE0F0CCF112331F004E08016E8
:102F2000910411F42E9A2F9881E00E94650A282DB1
:102F30002770722EC401F3E095958795FA95E1F715
:102F4000AC015695542F44275795479570E060E0A3
:102F50008E3F3FEF930791F1DA01A154BE4F30E06D
:102F600020E0FB01E455FA4F7F01FA01E15CFD4FDF
:102F70006F01F701E20FF31FE491F0E02F01072C3E
:102F800002C0440C551C0A94E2F78F3F980739F0B1
:102F90005496BC905497B4285496BC92549777207A
:102FA00039F05601A20EB31EF50104890529048BE0
:102FB0002F5F3F4F119628353105D9F60196685A93
:102FC0007F4F40585F4F603B710509F0C1CF0E94B1
:102FD00074118FE00E94A30FFFEF8F1A9F0A09E17F
:102FE0008016910409F0B2CE112311F02F9A2D987A
:102FF00080E991E00E943A0C2D9A81E090E00E94D5
:103000002C2080FFA9CE8AE090E00E942C209FEF28
:10301000980F9E3F08F0A0CE22E330E030936C0181
:1030200020936B0128E330E030936A01209369011B
:103030000BE010E01A830983682F80E59AE00E9474
:10304000A71089819A810E942C2009811A810F5F23
:103050001F4F1A8309830131110571F70E94741102
:1030600088EE93E00E943A0C77CE809172019091A5
:103070007101182F191B103140F41F3009F442CF91
:1030800081E083BF889513BE3DCF91E0909370019E
:1030900080937101EEE6F1E0808191810196808359
:1030A000918380916701809366010E94A60F8093AF
:1030B0006701EFEBF1E0298121112FEF8FEF2193D1
:1030C0002193219321938150D0F710926A0110929D
:1030D000690110926C0110926B01E0916D01E93071
:1030E00008F03BC1F0E0E958F74E0C940923801832
:1030F000B0187419B019BF19061A521A041E2B1FE2
:103100002FB7F8948091720190917301A09174018E
:10311000B09175012FBF40919F015091A001609126
:10312000A1017091A201841B950BA60BB70B809394
:10313000A3019093A401A093A501B093A601883B9D
:103140009B40A105B10518F081E080936D0140EA34
:1031500050E167E070E087E290E00E94790FFDC0E7
:1031600080E10E946911882339F080919C018330AD
:1031700018F48F5F80939C0180E80E946911882376
:1031800039F080919C01882319F0815080939C0133
:1031900000919C01098314E0019FF0011124EF5E6E
:1031A000FE4F808180939D01828180939E0188E003
:1031B0000E946911882309F467C0011165C085E088
:1031C00080936D0160E070E088ED91E460933F0AC8
:1031D0007093400A8093410A9093420A1092430AE6
:1031E0001092440A1092450A1092460A1092A701C2
:1031F0001092A8011092A9011092AA0180E090E01B
:10320000A0E0B3E48093AB019093AC01A093AD0137
:10321000B093AE010DEC1CEC2CEC3DE30093AF0140
:103220001093B0012093B1013093B20181E08093FB
:10323000B30199E19093B4018093B50182EF9FEFC0
:1032400090938D0180938C012EE020939001109239
:10325000930190939501809394012093980110928B
:103260009B011092B9011092B801EBE2F6E01086D2
:1032700011861286138614861586168617867A9608
:103280001AE0EB33F10799F788E00E94691188236F
:1032900031F00981013019F484E080936D0188E0F8
:1032A0000E946911882329F01981123011F41093BA
:1032B0006D0188E00E946911882329F0098103309B
:1032C00011F400936D014EE95CE070E060E090E085
:1032D00080E00E94790F60919E0170E080919D01D5
:1032E00048E95CE090E039CF84E00E9469118823CE
:1032F00019F081E080936D0146E15BE070E060E0F1
:1033000090E080E00E94790F6091BA017091BB015A
:1033100088E2683E13E0710748F48EE26436710576
:1033200028F484E36A30710508F48AE38093BE01CF
:1033300082E0809300018091BE0190E090936C0147
:1033400080936B0183E290E090936A01809369011E
:1033500090E080E04AE00E947B110E947411D2CD7F
:1033600084E00E946911882319F081E080936D0147
:1033700044E157E070E060E090E080E0EECE84E071
:103380000E946911882319F081E080936D0188E023
:103390000E946911882331F080916801882329F106
:1033A0000E94AE0F80E40E946911882331F01092D0
:1033B000BB011092BA010E94DB1180916801882341
:1033C000B9F081E08093000110926C0110926B01C2
:1033D00010926A01109269018BE097E00E94C91176
:1033E0008BEE96E00E944E11B8CF0E94B30FDACF59
:1033F00081E08093000110926C0110926B01109299
:103400006A011092690181E097E0E8CF80E80E94AC
:103410006911811119C080E10E946911811114C0E4
:1034200080E20E94691181110FC080E40E9469113D
:1034300081110AC088E00E946911811105C084E0F1
:103440000E946911882319F086E080936D016091D4
:103450003F0A7091400A8091410A9091420A0E946D
:103460009B216B0160913B0A70913C0A80913D0A5F
:1034700090913E0A0E949B21CB0140914F0AB601D8
:103480000E94F90F90E080E00E948C0F81E0809311
:1034900000018FE090E090936C0180936B018AEDC6
:1034A00096E0A0CF2091470A3091480A4091490AFE
:1034B00050914A0A6091430A7091440A8091450AEA
:1034C0009091460A0E94B8206093430A7093440A80
:1034D0008093450A9093460A20913F0A3091400A12
:1034E0004091410A5091420A0E94B8206B017C0130
:1034F000C0923F0AD092400AE092410AF092420AFA
:1035000080E80E946911811119C080E10E9469114F
:10351000811114C080E20E94691181110FC080E402
:103520000E94691181110AC088E00E94691181110D
:1035300005C084E00E9469118823A9F020914B0AFC
:1035400030914C0A40914D0A50914E0A60E070E073
:10355000CB010E94B7206093430A7093440A809382
:10356000450A9093460AA0904F0AB12CB5010B2C46
:10357000000C880B990B0E94D3212B013C01AC015C
:103580009B01C701B6010E94B72020E030E0A901ED
:103590000E942421181644F01092430A1092440A03
:1035A0001092450A1092460AC701B6010E949B215B
:1035B0008B0160913B0A70913C0A80913D0A909189
:1035C0003E0A69837A838B839C830E949B214B01F3
:1035D0003CE8232E31E0332E38862F82D501A80D0A
:1035E000B91DBE83AD83A00EB11EAF81B8851596FF
:1035F000FC91159714968C91149712962C91129712
:103600004D915C9111971696EC91169713969C919B
:103610006D817E8146175707F4F4BA01680F711D5A
:10362000861697064CF430E02A153B052CF42F0F34
:10363000311D02171307ECF0480F511D8416950633
:1036400054F4892F90E08A159B052CF48E0F911D60
:103650000817190774F0A3019201C701B6010E946F
:10366000B82020E030E04CE752E40E94832287FD3E
:103670000DC11092B3011092AF011092B0011092DF
:10368000B1011092B20187E080936D0189819A8126
:10369000AB81BC818093230690932406A0932506DA
:1036A000B0932606C0922706D0922806E0922906FB
:1036B000F0922A060BE216E01A8309830E94D41FB7
:1036C00025E030E040E050E00E9454206E5F7F4FE4
:1036D0008F4F9F4FA981BA8158966C930E94D41F37
:1036E0002FE030E040E050E00E9454206B5A7F4FC2
:1036F0008F4F9F4FE981FA81618FC0902306D09050
:103700002406E0902506F090260620E030E040EA0E
:1037100050E4C701B6010E94B82020E030E040E844
:103720005FE30E94B8200E949B214B015C0120E0D6
:1037300030E040EA50E4C701B6010E94B7200E9481
:103740009B216B017C01C814D904EA04FB0474F4C6
:103750008C189D08AE08BF080E94D41FA5019401D3
:103760000E945420C60ED71EE81EF91EC701B601DE
:103770000E94D321A981BA816D937D938D939C93EF
:103780001397C0902706D0902806E0902906F09065
:103790002A0620E030E040EA50E4C701B6010E946A
:1037A000B82020E030E040E85FE30E94B8200E94AB
:1037B0009B214B015C0120E030E040EA50E4C7016E
:1037C000B6010E94B7200E949B216B017C01C814A6
:1037D000D904EA04FB0474F48C189D08AE08BF08F1
:1037E0000E94D41FA50194010E945420C60ED71E2A
:1037F000E81EF91EC701B6010E94D321E981FA81B2
:1038000064837583868397830E94D41F2BE030E006
:1038100040E050E00E9454206550710981099109EF
:103820000E94D32120E030E048EC52E40E9429219C
:10383000A981BA8150966D937D938D939C935397F4
:103840000E94D41F29E130E040E050E00E94542063
:10385000675E7F4F8F4F9F4F0E94D32120E030E063
:1038600048EC52E40E942921E981FA81648B758B2E
:10387000868B978B7A96FA83E983EB53FA4009F0AB
:103880001DCF8CEC96E00E94A50D0AC02F813885D3
:10389000285F3F4F38872F832C59314009F0A5CE40
:1038A0000CE811E01A83098360914F0A70E090E000
:1038B00080E00E94D3219B01AC0160913B0A709192
:1038C0003C0A80913D0A90913E0A0E94B7206B010C
:1038D0007C01A981BA8114968C9114976D917C9189
:1038E000680F711D90E080E00E94D1219B01AC0126
:1038F000C701B6010E94242181110DC08091B80139
:103900009091B90101969093B9018093B80186EC2A
:1039100096E00E94A50D2091B8013091B9018091E7
:10392000B6019091B70105962817390759F480918F
:10393000B4018F3038F081508093B4013093B701D7
:103940002093B60109811A81085F1F4F1A830983EA
:103950000C59114009F0A8CF80916E0190916F0130
:1039600065E570E00E94F5220CE811E01A830983F6
:1039700050E8A981BA8117964C911797442349F0D2
:103980006091B3012D913C911197261B31092D9324
:103990003C93E981FA8120813181223F3F4FE9F454
:1039A000A981BA8117961C920097D9F0E981FA8112
:1039B00035812091B401230F2383F52FF21BA981B8
:1039C000BA811696FC9309811A81085F1F4F1A83EA
:1039D00009830C59114069F61CC0009739F7411151
:1039E000F2CF80E890E0E981FA819183808381E0E1
:1039F00087830E94D41F27E130E040E050E00E941E
:103A000054206A5F7F4F8F4F9F4FA981BA811596CF
:103A10006C93C090A701D090A801E090A901F0900C
:103A2000AA0120E030E040E053ECC701B6010E945B
:103A3000832218160CF07CC02091AF013091B001A8
:103A40004091B1015091B201C701B6010E94B72067
:103A50006093A7017093A8018093A9019093AA0194
:103A6000C090AB01D090AC01E090AD01F090AE0100
:103A700020E030E040E053ECC701B6010E94832211
:103A800018160CF05AC02091AF013091B00140914E
:103A9000B1015091B201C701B6010E94B7206093F5
:103AA000AB017093AC018093AD019093AE01809116
:103AB0006D018630D1F46091A7017091A8018091C9
:103AC000A9019091AA010E949B21CB010E948C0F19
:103AD0006091AB017091AC018091AD019091AE010C
:103AE0000E949B21CB010E948C0FD1011596DC9086
:103AF00015971496EC90149712960C91129710E06B
:103B0000ED91FC91FA83E983EE0DF11D7F0129818E
:103B10003A812E153F05F4F44D2DB801C9010E94DC
:103B2000CF0F69817A816F5F7F4F7A836983EFCF8F
:103B300060E070E080E093E48BCF80E090E0A0E074
:103B4000B3E48093AB019093AC01A093AD01B0932B
:103B5000AE01ADCFD1011696DC9016971496EC907D
:103B6000149713960C91139710E0ED91FC91FA8342
:103B7000E983EE0DF11D7F0129813A812E153F0564
:103B800064F44D2DB801C9010E94CF0F69817A817B
:103B90006F5F7F4F7A836983EFCF78E0270E311C08
:103BA0008CE9281681E0380609F09FCF81E08093E8
:103BB00000016091B8017091B901CB019927843659
:103BC0009105F0F40A97F0F082E0282F220F280FD9
:103BD000220F215080E890E0821B910995958795EE
:103BE00090936C0180936B0110926A0110926901AD
:103BF00090E080E04AE00E947B110E948710ADCBEC
:103C000083E0E3CF81E0E1CF8091B501882359F1D2
:103C100080916E0190916F0164E670E00E94F52240
:103C2000892B11F41092B5010E9487100FE116E064
:103C30001A83098318E0A981BA8195968C91811124
:103C40008CCB10936D0184EA96E00E94A50D8981CA
:103C50009A814A96E981FA81E551FA4009F47DCBCF
:103C60009A838983E8CF0BE216E01E830D83AD8132
:103C7000BE8158961C91212E312CB101032C000CD1
:103C8000880B990B0E94D3216B017C01AD81BE8111
:103C900054966D917D918D919C91579769837A830C
:103CA0008B839C8320911F06309120064091210632
:103CB00050912206C701B6010E948822ED81FE8143
:103CC00024853585468557850E94B8204B015C01C7
:103CD00020E030E040E05FE3C701B6010E948822A7
:103CE0009B01AC0169817A818B819C810E94292191
:103CF0009B01AC01C501B4010E94B7204B015C01DE
:103D0000AD81BE811C968D929D92AD92BC921F9703
:103D100050964D905D906D907C9053972AE939E9CB
:103D200049E15EE3C701B6010E9488229B01AC0114
:103D3000C301B2010E942921ED81FE8120853185D8
:103D4000428553850E94B8206B017C01AD81BE8104
:103D50001896CD92DD92ED92FC921B9723E333E30C
:103D600043E75FE3C301B2010E948822ED81FE8137
:103D7000608B718B828B938B23E333E343E75FE3A9
:103D800069817A818B819C810E948822AD81BE816C
:103D900054966D937D938D939C9357972D913D9160
:103DA0004D915C91C701B6010E94B8206B017C0166
:103DB000ED81FE81C082D182E282F382248135814D
:103DC00046815781C501B4010E94B820AD81BE81F2
:103DD00014966D937D938D939C93179759962C9180
:103DE0005997222369F1215059962C930E949B21C7
:103DF0002B01C701B6010E949B216B01B0E44B1659
:103E0000510428F4412FB201C6010E94740AB10185
:103E1000640D751D615071096034710520F4412FE6
:103E2000C6010E94740A412FB201C6010E94CF0F41
:103E3000C1018C0D9D1D412FB20101970E94CF0F32
:103E40000D811E81065E1F4F1E830D830B531A408A
:103E500009F00DCFEBCE88E00E946911882319F09C
:103E600081E080936D010E94DB1182E0809300016C
:103E70002AE030E030936C0120936B0163E070E046
:103E800070936A01609369018AE996E00E944E117D
:103E900081E0809300012091B8013091B9018091B7
:103EA000BA019091BB0128173907C8F086E090E06D
:103EB00090936C0180936B018EE190E090936A0186
:103EC0008093690189E696E00E944E118091B801C5
:103ED0009091B9019093BB018093BA013ECA82E1EF
:103EE00090E090936C0180936B018EE190E0909351
:103EF0006A018093690189E896E00E94C91183E212
:103F000090E090936C0180936B018EE796E06ACA13
:103F10008F929F92AF92BF92CF92DF92EF92FF92D9
:103F2000CF93DF93EC01688179818A819B81611550
:103F300071058105910521F464E279ED8BE597E047
:103F40002DE133EF41E050E00E94542049015A0135
:103F50009B01AC01A7EAB1E40E9473206B017C01D4
:103F6000ACEEB4EFA50194010E948120C60ED71ECD
:103F7000E81EF91EF7FE06C081E0C81AD108E10864
:103F800080E8F80AC882D982EA82FB82C701B601BA
:103F90009F77DF91CF91FF90EF90DF90CF90BF9010
:103FA000AF909F908F9008958F929F92AF92BF9203
:103FB000CF92DF92EF92FF9260910D0170910E010E
:103FC00080910F0190911001611571058105910596
:103FD00021F464E279ED8BE597E02DE133EF41E0E8
:103FE00050E00E94542049015A019B01AC01A7EA0C
:103FF000B1E40E9473206B017C01ACEEB4EFA5012B
:1040000094010E948120C60ED71EE81EF91EF7FEFD
:1040100006C081E0C81AD108E10880E8F80AC09219
:104020000D01D0920E01E0920F01F0921001C70134
:10403000B6019F77FF90EF90DF90CF90BF90AF9049
:104040009F908F90089560930D0170930E0180935F
:104050000F01909310010895F999FECF92BD81BD93
:10406000F89A992780B50895262FF999FECF92BD29
:1040700081BDF89A019700B4021639F01FBA20BD2D
:104080000FB6F894FA9AF99A0FBE0895262FF99967
:10409000FECF1FBA92BD81BD20BD0FB6F894FA9A2B
:1040A000F99A0FBE01960895052E97FB1EF4009411
:1040B0000E946B2057FD07D00E94862007FC03D08A
:1040C0004EF40C946B2050954095309521953F4FC0
:1040D0004F4F5F4F089590958095709561957F4FF4
:1040E0008F4F9F4F08950E94A820A59F900DB49FC9
:1040F000900DA49F800D911D11240895B7FF0C947D
:1041000073200E947320821B930B0895A1E21A2E44
:10411000AA1BBB1BFD010DC0AA1FBB1FEE1FFF1F6B
:10412000A217B307E407F50720F0A21BB30BE40BBB
:10413000F50B661F771F881F991F1A9469F7609502
:104140007095809590959B01AC01BD01CF010895BC
:10415000A29FB001B39FC001A39F700D811D1124C8
:10416000911DB29F700D811D1124911D089550580D
:10417000BB27AA270E94CF200C9449220E943B22F1
:1041800038F00E94422220F039F49F3F19F426F4BF
:104190000C9438220EF4E095E7FB0C943222E92FC0
:1041A0000E945A2258F3BA176207730784079507CB
:1041B00020F079F4A6F50C947C220EF4E0950B2EF9
:1041C000BA2FA02D0B01B90190010C01CA01A00169
:1041D0001124FF27591B99F0593F50F4503E68F1C4
:1041E0001A16F040A22F232F342F4427585FF3CF05
:1041F000469537952795A795F0405395C9F77EF4D6
:104200001F16BA0B620B730B840BBAF09150A1F01E
:10421000FF0FBB1F661F771F881FC2F70EC0BA0FA4
:10422000621F731F841F48F4879577956795B7952C
:10423000F7959E3F08F0B0CF9395880F08F0992727
:10424000EE0F9795879508950E940E2208F481E05D
:1042500008950E943D210C9449220E94422258F068
:104260000E943B2240F029F45F3F29F00C94322257
:1042700051110C947D220C9438220E945A2268F32A
:104280009923B1F3552391F3951B550BBB27AA270F
:1042900062177307840738F09F5F5F4F220F331F49
:1042A000441FAA1FA9F335D00E2E3AF0E0E832D011
:1042B00091505040E695001CCAF72BD0FE2F29D014
:1042C000660F771F881FBB1F261737074807AB07E6
:1042D000B0E809F0BB0B802DBF01FF2793585F4F5B
:1042E0003AF09E3F510578F00C9432220C947D22D6
:1042F0005F3FE4F3983ED4F3869577956795B7953D
:10430000F7959F5FC9F7880F911D9695879597F947
:104310000895E1E0660F771F881FBB1F62177307C0
:104320008407BA0720F0621B730B840BBA0BEE1FD5
:1043300088F7E09508950E94A2216894B1110C9429
:104340007D2208950E94622288F09F5798F0B92F2D
:104350009927B751B0F0E1F0660F771F881F991FBA
:104360001AF0BA95C9F714C0B13091F00E947C22BE
:10437000B1E008950C947C22672F782F8827B85FCE
:1043800039F0B93FCCF3869577956795B395D9F712
:104390003EF490958095709561957F4F8F4F9F4F1C
:1043A0000895E89409C097FB3EF490958095709528
:1043B00061957F4F8F4F9F4F9923A9F0F92F96E971
:1043C000BB279395F695879577956795B795F111E6
:1043D000F8CFFAF4BB0F11F460FF1BC06F5F7F4F83
:1043E0008F4F9F4F16C0882311F096E911C0772395
:1043F00021F09EE8872F762F05C0662371F096E89E
:10440000862F70E060E02AF09A95660F771F881F6C
:10441000DAF7880F9695879597F90895990F000810
:10442000550FAA0BE0E8FEEF16161706E807F90786
:10443000C0F012161306E407F50798F0621B730B21
:10444000840B950B39F40A2661F0232B242B252BA2
:1044500021F408950A2609F4A140A6958FEF811D45
:10446000811D089597F99F6780E870E060E00895E6
:104470009FEF80EC089500240A941616170618067C
:104480000906089500240A94121613061406050658
:104490000895092E0394000C11F4882352F0BB0FE9
:1044A00040F4BF2B11F460FF04C06F5F7F4F8F4F4C
:1044B0009F4F089557FD9058440F551F59F05F3F87
:1044C00071F04795880F97FB991F61F09F3F79F036
:1044D00087950895121613061406551FF2CF4695B8
:1044E000F1DF08C0161617061806991FF1CF86953A
:1044F0007105610508940895E894BB27662777271E
:10450000CB0197F908950E940E2208F48FEF0895C9
:104510000E949B220C9449220E943B2238F00E9468
:10452000422220F0952311F00C9432220C94382270
:1045300011240C947D220E945A2270F3959FC1F39E
:10454000950F50E0551F629FF001729FBB27F00D41
:10455000B11D639FAA27F00DB11DAA1F649F662796
:10456000B00DA11D661F829F2227B00DA11D621FE5
:10457000739FB00DA11D621F839FA00D611D221F9F
:10458000749F3327A00D611D231F849F600D211D83
:10459000822F762F6A2F11249F5750409AF0F1F006
:1045A00088234AF0EE0FFF1FBB1F661F771F881F6F
:1045B00091505040A9F79E3F510580F00C94322253
:1045C0000C947D225F3FE4F3983ED4F38695779573
:1045D0006795B795F795E7959F5FC1F7FE2B880F15
:1045E000911D9695879597F90895AA1BBB1B51E1DC
:1045F00007C0AA1FBB1FA617B70710F0A61BB70B53
:10460000881F991F5A95A9F780959095BC01CD01F7
:104610000895EE0FFF1F0590F491E02D0994F89492
:02462000FFCFCA
:1046220001FFFFFFFF00E1000000000000010000A9
:10463200003B0022003B0029003B0030003B0037DA
:104642000000C1808100000000000000FA0A4E0C48
:104652001B0B100B610B1F0B3D0B00000000A71082
:0A4662000D0C781177110D0A00000D
:00000001FF
